:020000040002F8
:10600000B0700020C1630200C9630200CB630200CC
:10601000CD630200CF630200D163020000000000E4
:10602000000000000000000000000000D363020038
:10603000D563020000000000D7630200D9630200AC
:10604000F56B0200DB63020029700200DB630200D3
:10605000DB630200DB630200916A0200DB63020083
:10606000DB630200DB630200DB630200DB63020030
:10607000DB630200DB630200DB630200DB63020020
:10608000DB6302004D6C0200DB630200DB63020095
:10609000DB630200DB630200ED6C0200DB630200E5
:1060A000DB630200DB630200DB630200DB630200F0
:1060B000DB630200DB630200000000000000000060
:1060C000DB630200DB630200DB630200DB630200D0
:1060D0005D6C0200DB630200DB6302000000000075
:1060E00000000000000000000000000000000000B0
:1060F00000000000000000000000000000000000A0
:10610000000000000000000000000000000000008F
:10611000000000000000000000000000000000007F
:10612000000000000000000000000000000000006F
:10613000000000000000000000000000000000005F
:10614000000000000000000000000000000000004F
:10615000000000000000000000000000000000003F
:10616000000000000000000000000000000000002F
:10617000000000000000000000000000000000001F
:10618000000000000000000000000000000000000F
:1061900000000000000000000000000000000000FF
:1061A00000000000000000000000000000000000EF
:1061B00000000000000000000000000000000000DF
:1061C00000000000000000000000000000000000CF
:1061D00000000000000000000000000000000000BF
:1061E00000000000000000000000000000000000AF
:1061F000000000000000000000000000000000009F
:10620000DFF80CD000F006FC00480047F9AB0200B4
:10621000B070002030B450E8012F93B2C4892344F9
:106220008489A34228BF1B1B0489A34202BFBFF37A
:106230002F8F002007E0C3EA020340E80134002C5E
:10624000E9D14FF001000A6030BC704750E8012FDF
:10625000C2EA024240E801210029F7D1704730B478
:1062600050E8022F1FFAA2F3C488A34202BFBFF373
:106270002F8F00200DE0C48923448489A34228BFC6
:106280001B1BC2EA034340E80234002CE8D14FF064
:1062900001000A6030BC704750E8022FC2EA224277
:1062A00040E802210029F7D17047034653E8022F46
:1062B000D988B2EB324F4FF0000017BF92B241EADB
:1062C000014142EA014104E05A68B2EB324F08BF93
:1062D000012043E80212002AE8D1704730B4044696
:1062E00054E8000F0D4644E80053002BF8D1156028
:1062F00030BC704730B4044654E8000F40EA010552
:1063000044E80053002BF7D1156030BC704730B41F
:10631000044654E8000F00EA010544E80053002B4E
:10632000F7D1156030BC704730B4044654E8000F14
:1063300080EA010544E80053002BF7D1156030BC1A
:10634000704730B4044654E8000F00EB010544E800
:106350000053002BF7D1156030BC704730B40446B1
:1063600054E8000FA0EB010544E80053002BF7D1DF
:10637000156030BC704770B404464FF0000054E81C
:10638000006F0D68AE4207BF44E80023012044E8D7
:1063900000630E60002B1CBF0020F0E770BC70474C
:1063A00030B4044654E8000F88422CBF451A054615
:1063B00044E80053002BF5D1156030BC7047000055
:1063C0000648804706480047FEE7FEE7FEE7FEE78F
:1063D000FEE7FEE7FEE7FEE7FEE7FEE70D6D0200E3
:1063E000016202002DE9F05F0546002092469B46BF
:1063F00088460646814640241BE0284641464746DB
:10640000224600F0AAFA53465A46C01A914110D3C8
:1064100011461846224600F016F82D1A67EB0108BF
:106420004F4622460120002100F00DF817EB00092D
:106430004E41201EA4F10104DFDC484631462A46C5
:106440004346BDE8F09F202A04DB203A00FA02F11F
:10645000002070479140C2F1200320FA03F3194352
:1064600090407047004870474CF3020038B5D0E9BF
:106470000221491E01EB410102EBC1014268C1EB5F
:10648000011102EB81010268C1EB011102EB8102F3
:10649000D0E9043101EB410103EB81013023A1F587
:1064A000527191FBF3F4174D6C4302EBC41291FB54
:1064B000F3F403FB141100921A2902DB124B1A4465
:1064C00000920C2291FBF2F3104C6343009C04EB0E
:1064D000C313009391FBF2F302FB13110C4A08E083
:1064E000491E40F2A324535C6343009C04EBC31396
:1064F00000930029F4DC0146684600F045FA009854
:1065000038BD00003F0C0F008051010067C203003E
:1065100050F3020070B5054601B90721541A241D35
:10652000B4F5B67F09DD286800F036F9A04204DC36
:106530002868401C2860012070BD002C05DA2868FE
:10654000401E286000F028F90444072094FBF0F076
:10655000401C70BD2DE9F04F89B01D468A4680462B
:10656000002401AF4FF0070B0192079057F8241059
:1065700011F8010B47F8241048B125280DD0BAF1C5
:10658000010F06D908F8010BAAF1010A5CE0641EAC
:106590005AE0002009B0BDE8F08F11F8010B47F870
:1065A00024100028F3D002264FF030095A284BD08F
:1065B00020DC4D2873D014DC442871D008DC252859
:1065C000DDD041282AD042282ED043283CD130E0CB
:1065D000462847D0472857D0482862D0492833D189
:1065E00061E0523808282FD2DFE800F0787AA683DD
:1065F0008A97A6A86138192826D2DFE800F00D1383
:1066000018202E253513255C252560642566256D0B
:10661000257375258B9BA0006AA000E070A0A96976
:106620000091B4E07DA000E088482969F8E788A0DF
:1066300007E06969642091FBF0F0133082E0E868BC
:1066400080E0641C47F82400002C8FDA002088F8D2
:1066500000000799A8EB01009CE7E8684FF02009CB
:10666000009070E07EA0ECE7686900F26C7000902A
:10667000D5E906126846FFF74DFF0099642091FBAB
:10668000F0F200FB12105DE06869042600F26C7005
:106690000090D5E906126846FFF73CFF53E010E092
:1066A00048E0A8684EE0A8680C21173090FBF1F292
:1066B00001FB120001E0E8690326401C42E0286962
:1066C000FBE768683EE069A0BBE7A8680C2801DA30
:1066D00067A0B6E767A0B4E767A0B2E769A0B0E734
:1066E00028682FE069A0ACE7A869012608BB07204D
:1066F00028E0D5E90610401AC01D90FBFBF021E010
:10670000686900F26C700090D5E906126846FFF7E0
:1067100001FF17E00126A86914E0A9695846891D00
:1067200091FBF0F20BFB1211EA69511AC91D91FBA2
:10673000FBF007E056A084E758A082E704266869CA
:1067400000F26C70009000218DF8181006A80A2144
:1067500013E0009A92FBF1F301FB1322303200F8B0
:10676000012D009A92FBF1F2009232B901E000F89B
:10677000019D321EA6F10106F9DC321EA6F10106CA
:10678000E7DC5EE710F8011B0029FBD100994A1EE7
:1067900000920029F6DC54E781070CD1642190FBBC
:1067A000F1F201FB120151B94FF4C87190FBF1F203
:1067B00001FB120018B1002000F26D10704701209B
:1067C000FAE7000053756E004D6F6E00547565005A
:1067D000576564005468750046726900536174001F
:1067E00053756E646179004D6F6E64617900547504
:1067F0006573646179005765646E657364617900DF
:1068000054687572736461790046726964617900D5
:106810005361747572646179000000004A616E0012
:10682000466562004D617200417072004D617900F1
:106830004A756E004A756C004175670053657000BB
:106840004F6374004E6F7600446563005CF3020092
:10685000256120256220256520255420255900002A
:1068600025592D256D2D2564000000000A0000002B
:10687000414D0000504D000025493A254D3A255321
:106880002025700025483A254D0000000900000031
:10689000256D2F25642F25790000000025483A2515
:1068A0004D3A25530000000040EA01039B0703D046
:1068B00009E008C9121F08C0042AFAD203E011F83F
:1068C000013B00F8013B521EF9D27047D2B201E001
:1068D00000F8012B491EFBD270470022F6E710B5E5
:1068E00013460A4604461946FFF7F0FF204610BD3E
:1068F000421C10F8011B0029FBD1801A7047034687
:1069000011F8012B00F8012B002AF9D11846704725
:1069100030B505460020034600E05B1C934205D2DB
:10692000EC5CC85C201A01D1002CF6D130BD30B52A
:106930000B46014600202022012409E021FA02F53D
:106940009D4205D303FA02F5491B04FA02F52844D7
:10695000151EA2F10102F1DC30BD202A04DB203A31
:1069600021FA02F00021704721FA02F3D040C2F16F
:10697000200291400843194670470000014900F089
:1069800003B800008450002010B500683C22B0FB22
:10699000F2F302FB1303B0FBF2F00B60B0FBF2F377
:1069A00002FB1303B0FBF2F018224B60B0FBF2F3D2
:1069B00002FB1303B0FBF2F0021D8B600723B2FB56
:1069C000F3F403FB1422800040F2B55300F66C3060
:1069D0008A61B0FBF3F2B0FBF3F403FB1400443222
:1069E00080084A61C8613B2802D3920700D0401C4E
:1069F0000022074C13460A61E25C824203D8801AE7
:106A00005B1C0B61F8E7401CC860084610BD000025
:106A1000B2F30200064C074D06E0E06840F00103C7
:106A200094E8070098471034AC42F6D3FFF7ECFB2C
:106A300058FD020078FD020070B58C1810F8015B5B
:106A400015F0070301D110F8013B2A1106D110F807
:106A5000012B03E010F8016B01F8016B5B1EF9D10B
:106A60002B0705D40023521E0DD401F8013BFAE791
:106A700010F8013BCB1A921C03E013F8015B01F8FC
:106A8000015B521EF9D5A142D8D3002070BD000091
:106A90002DE9F04700268AB0DFF85091B0464FF458
:106AA0008075012437460696284605F0F9F938B175
:106AB000D9F80403204203D0284605F0E7F926431D
:106AC0002D1D64007F1CADB2082FEDD34FF4BE74B2
:106AD000204605F0E5F948B1204605F0D7F946F023
:106AE000004606AA0121002005F0BCF9404D16F031
:106AF000FF0F15D00127002437420DD009EB840188
:106B0000D1F81005D1F81015C0F3042055F8242051
:106B1000C1F3014102B190477F00641C082CEBD304
:106B2000002E5FDA4FF0FF30CDF8108054E02819C6
:106B300010F8507F90F9000027F0C008401C3BD0AF
:106B400007A9404604F035FB10B34FEA97194046B9
:106B500002F062F955F820701FB1B9F1030F03D0AC
:106B600006E0B9F1030F27D104A9404604F029FB40
:106B70004FF0A04101EB8800D0F8000706A9C0F350
:106B8000014A404604F015FB18B1BAF1020F03D0D8
:106B900012E0BAF1030F0FD1B9F1030F08D1BAF126
:106BA000020F1DD00221404605F040F9761CF6B2D6
:106BB00017B149464046B847641C042CB7D3002E91
:106BC00010D06A460121002005F04CF90699009882
:106BD000884207D006900498002634460790A6E71E
:106BE0000321E0E70AB0BDE8F08700000060004044
:106BF0002045002070B54FF48076304604F0B6FC96
:106C0000114CB50560B1304604F0B7FC0120C5F861
:106C10000803607920B9012060712168002088474D
:106C20004FF48276304604F0A1FC00280AD03046AA
:106C300004F0A3FC0220C5F808032168BDE87040F9
:106C40000120084770BD0000B82B0020024902480F
:106C5000091F096800680847342C00200948D0F84B
:106C6000401100290DD00021C0F8401101218160A0
:106C70000548C268016A114401620069002800D019
:106C800000477047004002400C2B002000F0D2B9B2
:106C900070B50E46144900EB400001EBC0051446E8
:106CA000E86A183520B101280FD0022805D113E079
:106CB000284600F0F3F9A04201D2002411E0224658
:106CC0003146284600F022FA0BE0284600F0E6F9AB
:106CD000A042F4D20446F2E73146284600F0E9F932
:106CE0000446204670BD0000FC4D002010B5002178
:106CF000054A084600F000FD002803D0BDE810401A
:106D000000F0C6BC10BD0000A17B0200F0B5B54884
:106D10000023021D0178101D01254FF08054062923
:106D20000BD11678360708D10678C6F30316032E62
:106D300006D0042E04D0052E02D0062907D00EE07E
:106D4000B4F82463A84FC6F304263E6002E0167828
:106D5000360704D10678C6F30316032E02D006299F
:106D600004D00FE0A24FA14E7E670EE016783607E2
:106D700008D10678C6F30316032E06D0042E04D0DD
:106D8000052E02D0062907D00EE0D4F84462994FB0
:106D9000C6F342363E6002E01678360704D1067824
:106DA000C6F30316032E02D0062906D011E0924E38
:106DB000376827F0807737600EE01678360708D1FD
:106DC0000678C6F30316032E06D0042E04D0052E33
:106DD00002D006290AD011E04FF08046C6F80C31E7
:106DE000C6F81031834E361F336002E0167836073E
:106DF00004D10678C6F30316032E02D0062905D067
:106E00000CE07C4F032664373E600AE016783607B4
:106E100004D10678C6F30316032E02D006290DD03E
:106E200014E0764F05263E60744E78363560734E1A
:106E3000083633603F263F1D3E6002E01678360775
:106E400004D10678C6F30316052E02D0062957D0C2
:106E500062E06B4E36686B4F3E60694E361D366899
:106E60003F1D3E60664E083636683F1D3E60644EEC
:106E70000C3636683F1D3E60614E103636683F1D49
:106E80003E605F4E143636683F1D3E605C4E1836DD
:106E900036685C4F20373E60594E1C3636683F1DC1
:106EA0003E60574E203636683F1D3E60544E2436B5
:106EB00036683F1D3E60524E283636683F1D3E60A4
:106EC0004F4E2C3636683F1D3E604D4E303636688C
:106ED0004C4F40373E604A4E343636683F1D3E6068
:106EE000474E383636683F1D3E60454E3C36366864
:106EF0003F1D3E60424E403636683F1D3E6002E018
:106F00001678360708D10678C6F30316032E06D086
:106F1000042E04D0052E02D0062907D019E0D4F89B
:106F20005812394A01F04F01116002E01178090747
:106F30000FD10078C0F30310032803D0042801D038
:106F4000052806D131480168C90702D06FF0010158
:106F50000160D4F83001062808D1D4F8340106289D
:106F600004D12B48016841F48061016022487438E3
:106F7000016841F470010160BFF34F8FBFF36F8F61
:106F80004FF01021D1F80002002803DBD1F80402F1
:106F9000002822DA1F4A15601F480468002CFCD024
:106FA0001524C1F800420568002DFCD0C1F8044248
:106FB00001680029FCD0136001680029FCD0BFF3F0
:106FC0004F8F0D48F0380168144A01F4E061114315
:106FD0000160BFF34F8F00BFFDE712491048086002
:106FE000F0BD0000E00F00F0403501400DF0ADBAFB
:106FF00000C007403C050040FCED00E0105600409A
:107000000404001020C50040E40E004000040040CD
:107010003C17004004E5014000E401400400FA058B
:107020000090D003E02C00200148006800470000D9
:10703000C02B002010B5124C02202061606111A00D
:10704000A06104F17800E0614FF40070206200203C
:10705000A06260620BA1A164E06204F51E71E164AC
:107060001021A065C4E91410E06509A1E01DFFF737
:1070700046FC08A12046FFF742FC2020A07110BD6D
:10708000FC4D00205465726D696E616C000000005B
:107090005254540053454747455200000269C168A5
:1070A0008A4203D88068401A104400E0501A401EFB
:1070B00070472DE9F047C4681746894606464FF0E9
:1070C00000083069A04201D9051B02E0B168201A0E
:1070D0000D1AB0686D1E001BA84200D80546BD42BF
:1070E00000D33D4670682A4620444946FFF7DCFB42
:1070F000B0687F1B2C44A844A944A04200D10024BE
:10710000F460002FDDD14046BDE8F0872DE9F04165
:1071100004468846D4E90207C51BE1686068164644
:107120000844B54206D94146FFF7BEFBB819E060F6
:10713000BDE8F0812A464146FFF7B6FB761B08EB17
:10714000050132466068FFF7AFFBE660F0E700003C
:107150000FB4054B10B503A9044A029800F02AF8B1
:1071600010BC5DF814FB0000F5A40200442C0020C4
:1071700002E008C8121F08C1002AFAD17047704700
:10718000002001E001C1121F002AFBD1704700005E
:107190000121202803DA81400548014003E040280E
:1071A00002DA2038814009B1012070470020704781
:1071B000FC06FFBD2DE9FF4F8BB088460546002633
:1071C00006E025280BD0DDE90D1290476D1C761CDA
:1071D00028780028F5D10FB03046BDE8F08F0024A4
:1071E000A146A2460122AE4900E0044315F8013F42
:1071F000203B02FA03F00842F7D128782A2810D061
:107200006FF02F022878A0F13001092915D809EB79
:10721000890102EB410144F0020400EB01096D1CFD
:10722000F0E758F8041B5FEA010903D544F4005461
:10723000C9F1000944F002046D1C28782E2817D1EA
:1072400015F8010F44F004042A280ED06FF02F0225
:107250002878A0F1300109290AD80AEB8A0102EB4B
:10726000410100EB010A6D1CF2E758F804AB6D1CFC
:1072700028786C280FD006DC4C2817D068280DD051
:107280006A2814D104E0742810D07A280FD10DE0B8
:1072900044F400140AE044F4801401E044F440147F
:1072A0006978814202D104F580146D1C6D1C287828
:1072B000692865D006DC00288DD0632827D0642893
:1072C00006D15DE06E2808D073282AD0752877D0C3
:1072D000DDE90D129047761CE0E0C4F3025002286D
:1072E00009D003280DD0D8F8001004280DD00E6066
:1072F00008F10408D2E0D8F80010F217C1E90062E2
:10730000F6E7D8F800100E80F2E70E70F0E718F8F4
:10731000041B8DF8001000208DF80100EB460120C1
:1073200003E058F804BB4FF0FF3061074FF000074F
:1073300001D40AE07F1C57450DDA8742FADB1BF8BF
:1073400007100029F6D106E07F1C8742FCDB1BF802
:1073500007100029F8D1DDE90D23A9EB07008146CC
:10736000214600F0B1F83044C61904E0DDE90D1201
:107370001BF8010B90477F1EF8D22146484688E053
:1073800058F8040BC4F302514FF00A0B032900D143
:1073900000B2042900D140B2002802DA40422D2177
:1073A00002E0210505D52B218DF82410012104E0F0
:1073B00006E0E10710D02021F6E708AF089113E0BE
:1073C00058F8040BC4F302514FF00A0B032900D103
:1073D00080B2042900D1C0B20021EEE75946FFF780
:1073E000A6FA303107F8011D0028F7D1ADEB0700F0
:1073F00000F1200B600702D524F4803401E04FF047
:10740000010ADA4502DDAAEB0B0000E0002082460B
:1074100000EB0B0108980144A9EB01000A90E0037E
:1074200006D4DDE90D2321460A9800F04DF8064404
:107430004FF0000908E009A911F80900DDE90D1273
:10744000904709F10109761C08998945F3DBE003AF
:107450000CD5DDE90D2321460A9800F035F80644E5
:1074600004E0DDE90D1230209047761CBAF10001EE
:10747000AAF1010AF5DC05E0DDE90D1217F8010BB0
:107480009047761CBBF10001ABF1010BF4DC0A98CC
:107490002146DDE90D2300F005F806446D1C97E652
:1074A000092801002DE9F041044600251E46174633
:1074B000880404D405E039462020B0476D1C641EC2
:1074C000F9D52846BDE8F0812DE9F04104460025B4
:1074D0001E469046C80301D5302700E020278804C7
:1074E00004D505E041463846B0476D1C641EF9D509
:1074F0002846BDE8F081800701D0002070470120B8
:107500007047C3688B4206D811440069491E814206
:1075100001D8012070470020704790F8240001280E
:1075200001D01F207047EE20704710B501220221C4
:10753000002001F061FA08B1072810D107220221CA
:10754000012001F059FA08B1072808D100210A22C8
:10755000084601F051FA08B1072800D1002010BDFB
:10756000022001F059B9000070B50024064D06E074
:107570006868012110F8340005F042FB641C28788B
:107580008442F5D3002070BDC82B0020F8B5164604
:107590000C4605460A2A01D20720F8BD05F02AFC50
:1075A00018B905F0F1FB0028F7D1134F102113484B
:1075B0007D603C70BE60FFF790F90020C7E90400D1
:1075C0000F4E0DE005EBC4003168009181788DF815
:1075D000011000780B4A694605F064FB0028DCD1F5
:1075E000641EE4B2EED2BDE8F84005480021064A28
:1075F000001D00F00DB90000C82B0020F045002050
:10760000A0EF0200B5A702006D9B020072B604F065
:10761000E9FE00BF04F014FD0028FBD11148124917
:10762000401AC408012000EB044010A104F022FE1F
:1076300011480068C00700D000BE022000EB0440E3
:107640000EA104F017FEBFF34F8F0B48E43801681A
:107650000E4A01F4E06111430160BFF34F8F00BF98
:10766000FDE70000F0FD020088FD02004661746144
:107670006C206572726F7200F0ED00E053797374E4
:10768000656D207265736574000000000400FA05E2
:107690000EB500210091CDE901106A4644F20100C7
:1076A000FFF7B4FF0EBD10B58268C368934203D0E4
:1076B00002F0F4FE002010BD052010BD29B112B16A
:1076C000531E134203D0092070470E2070470160FB
:1076D000838000218160C1600846704710B58268D0
:1076E000C3689A1A83889A4203D802F0E1FE002008
:1076F00010BD042010BD00002DE9F84F254C814637
:10770000924660880E46814241D800274FF6FF78A6
:107710008DF80070684600F07DF922786078A188C5
:10772000884201DA401C00E00020C0B2904204D13F
:107730009DF8000000F092F927E0657860788842B3
:1077400001DA401C00E0002060709DF8000000F0AD
:1077500085F9454519D0A068B9F1000F40F835A06A
:107760000DD066B16188E068324605FB01004946EC
:10777000FFF79AF8A06800EBC500868002E000EBF6
:10778000C50087800020BDE8F88F0420FBE70920B2
:10779000F9E70000E02B002010B50E4C03E0401C80
:1077A00000E00020207020786178814210D022789B
:1077B0006188E068A36802FB010003EBC20153F893
:1077C0003220898890472078A1888842E9DAE6E764
:1077D00010BD0000E02B002030B5CB0008339DB277
:1077E00093074FF0000401D0072030BD044B9A608E
:1077F0002A44DA605C701C7058809980002030BD8B
:10780000E02B0020014802F018BA0000F82B0020FD
:107810003AB100680129426100D0002101610020D5
:10782000704707207047000038B5114808235822D8
:10783000416800910F49006803F0D5FB002815D17D
:107840000D4A69460D4802F0FDF904000ED10121F0
:107850000A4802F06EFA0123094A1946074802F065
:10786000C4F90649012008390870204638BD0000D7
:10787000A8EF0200104600207DDF0200F82B002058
:10788000FFFF7F0070B50446007F0D4608B1002061
:1078900070BDA26102F074FF401941F10001C4E91A
:1078A0000201206900B125612146BDE87040002039
:1078B00006F040BE014600200877012006F03ABEDF
:1078C000074810B50178074A515C19B1001D05F051
:1078D00091FD02E00C3005F00FFC002010BD00000F
:1078E0001C2C0020AC2B002070B50A4E01460A4823
:1078F000B578FFF7D8FE04464DB10020B070711C7A
:107900000122C81D03F0AAFE08B1FFF7C1FE204600
:1079100070BD0000142C002068460020F0B5244EF5
:1079200089B01F460D00044672603FD0A8882968C0
:1079300082B22048FFF7C2FE002835D1A889A96885
:1079400082B21C481030FFF7B9FE00282CD120224B
:1079500019496846FEF7A8FF60690690207C00B1CF
:1079600001208DF814008DF81C70607C00B10E2091
:107970008DF81500E0680290A068039020680190DF
:10798000606800900A480D4A6946083003F032FEEC
:10799000002809D1B0702068401C05D0044901229C
:1079A000491CC81D03F05AFE09B0F0BD0720FBE7D3
:1079B000142C002068460020BCEF020051E60200B3
:1079C00010B501461048FFF789FE040019D10F4891
:1079D0000F4A0178515C19B1001D05F0FDFC02E071
:1079E0000C3005F079FB60B9084907480839FFF702
:1079F0005AFE30B9054901220839044803F03EFE19
:107A00000446204610BD0000784600201C2C0020B3
:107A1000AC2B002030B5EFF3108172B60D4A94689C
:107A2000012324B10370002900D162B630BD9360F8
:107A30004FF0E023D3F88051074C25401560C3F880
:107A40008041D3F8844154605A17C3F8842100223E
:107A50000270E8E788460020FC06FFBD0B498A68F3
:107A6000002A11D000280FD1EFF3108072B60B68F6
:107A70004FF0E022C2F800314B68C2F80431002216
:107A80008A60002800D162B6704700008846002056
:107A90002DE9F041064608680C46411C4FF0A0470E
:107AA0004FF0010506D005FA00F1C7F80815206867
:107AB00004F0A8F96068411C02D0002104F090F99C
:107AC0003168A069C1F82405607D227D31681043CA
:107AD000C1F86C05D4E900123068C0F81425C0F86C
:107AE0000C15207D012815D1A068411C02D0002171
:107AF00004F076F9E068411C05D08540C7F80855C8
:107B0000E06804F07FF9D4E902123068C0F8082573
:107B1000C0F81015BDE8F0812DE9F041064608686F
:107B20000C46411C4FF0A0474FF0010506D005FA66
:107B300000F1C7F80815206804F06EF96068411C70
:107B400002D0002104F055F93168A069C1F824057C
:107B5000607D217D32680843C2F86C05D4E90012CB
:107B60003068C0F80C15C0F81425207D012815D107
:107B7000A068411C02D0002104F03BF9E068411CE0
:107B800005D08540C7F80855E06804F045F9D4E908
:107B900002123068C0F80825C0F81015BDE8F08161
:107BA00004F01ABF70B51500044609D00020286003
:107BB00034B1206820B1A079800703D0072070BDC0
:107BC0000E2070BD084600F01FFBC0B2142804D080
:107BD0002179814203D8042070BD052070BDE28860
:107BE000216800FB02102860002070BD2DE9FC47D1
:107BF000002517880646158090F82D001446894602
:107C000030B13A462146484600F012FB051E09D124
:107C1000B0784FF00C0A18B32088C846001DB8424F
:107C200002D95046BDE8FC87684679DF0028F9D1C3
:107C30002088032108F8001020881921401C80B2F8
:107C4000208008F800102088401C80B2208000EBC3
:107C50000801BDF8000006F0C0FE2188084420801D
:107C6000F0780222C8B1218896F9033001F1030CA3
:107C70004846BC45D5D8425421884FF0010C491CD8
:107C800089B2218000F801C02188491C89B2218075
:107C900009F801302088401C20807068B8B1218824
:107CA00090F9003001F1030C4846BC45B9D8425464
:107CB00021880A22491C89B2218042542188491C0A
:107CC00089B2218009F801302088401C2080308949
:107CD00050B1CDE900474B460622022106F10800CB
:107CE00006F04CFF051E9DD1308A50B1CDE900470A
:107CF0004B460722032106F1100006F03FFF051E48
:107D000090D1308B50B1CDE900474B46152214215C
:107D100006F1180006F032FF051E83D1306A30B13B
:107D20003B462246494601F094F9051EDBD1706AB4
:107D300030B13B462246494603F070F8051ED2D1C9
:107D400096F82C0038B13B4622464946304606F0AC
:107D500075FA051EC7D1307838B13B4622464946F0
:107D6000304603F0E5F8051EBDD128465AE718B5A0
:107D700004460020ADF8000013466A46204600F095
:107D800006F8002802D0BDF80000204418BD70B5E8
:107D9000C8B1C2B10024158803E0065D641C3444F8
:107DA000A4B2A54203D8061976789E4201D08C422F
:107DB000F3D38C4207D2005DA31C401E9BB280B25D
:107DC0001C188C4201D9002070BD138070BD80F852
:107DD000301070472DE9F0410D00044606D02CB15B
:107DE00095F87A000026012803D006E00E20BDE8B1
:107DF000F08195F89800012829D0D5F8A000042832
:107E000025D0D5F89C00042821D04FF00108A67099
:107E10002C2205F17801201DFEF746FD84F8306024
:107E2000D5F8A4006063D5F8A800A0634FF6FF70F2
:107E3000A4F8240404F58260C4F82004C4F826647D
:107E4000A4F82A6484F82C64207810B104E0072098
:107E5000CDE7FF2084F8540004F155072046C4F80C
:107E60001074FFF75AFBA4F8140404F214423946C4
:107E70002846FFF7BBFE0028B9D104F23120C4F830
:107E800018042046FFF749FBA4F81C0404F21C4226
:107E900005F13C00D4F81814FFF7A8FE0028A6D17D
:107EA00084F85180208BA4F8480084F83C80266434
:107EB00084F85060606900216064454604F13C022A
:107EC000781E72DF002892D1257090E710B50288E5
:107ED000102A1BD0112A20D0262A1DD1007A0C4648
:107EE000012801D0022817D1A0780521401CB0FB41
:107EF000F1F201FB1201204600F03AF800280BD005
:107F0000A16B002908D0BDE810400847C27B012AB8
:107F100002D18088A1F8240410BD0C46002184F809
:107F20002E148088B4F824148842F5D120790028D2
:107F3000F2D10121DFE710B5044690F8540074DF58
:107F4000012084F82E04002084F8300484F85000C6
:107F50000621204602F0BAFA002808D1A17820466E
:107F600000F006F810B1A16B01B18847002010BDE8
:107F70002DE9F05F044600780F4698B1A770002500
:107F8000C4F82654A4F82A5484F82C54A079012665
:107F900008B1012F09D0E07980B1012F05D0022F5F
:107FA00003D00BE00820BDE8F09F616B21B184F89D
:107FB0002D640820884701E084F82D5404F22741FD
:107FC00000200A5C0AB1304603E0401C0628F8D3C2
:107FD00000204FF002084FF0030B012F06D0022FB4
:107FE0000CD0032F0FD0042F15D110E0A17929B1A7
:107FF00094F8241011B908B130460DE0E17911B1BF
:1080000008B1404608E0207A08B1584604E0607A9A
:1080100008B1042000E02846A070616B41B103283C
:1080200001D0042804D1607910B194F82E0498B1DD
:1080300084F82F5404F13C0018210746FEF74DFC4C
:1080400084F83C6004F12C0005F0ECFC58B194F885
:108050002C0084F8510008E084F8305484F82F6430
:1080600007208847E6E784F8516094F8240058B167
:1080700004F1280005F0D6FC20B194F8280084F81B
:10808000520001E084F8526084F85050A27804F263
:10809000264104F582694FF0060A052A64D2DFE81A
:1080A00002F07C030F22420084F83160C4F82054AF
:1080B000C4E9101584F83C808020A4F8480055E0FD
:1080C00084F8318094F82420384612B107220270D7
:1080D00001E080F800B0228A8281C4F82054416017
:1080E000E168B96042E06069B860208BB88194F8BB
:1080F00024003D460028204602D084F83CA001E040
:1081000084F83C6006F00CFD50B185F81480042121
:10811000204602F0DBF938BB052184F8311021E05C
:1081200084F831B01EE0E069B860208CB88194F822
:1081300024003D460028204602D084F83CA001E0FF
:1081400084F83C6006F0ECFC48B185F8148004210A
:10815000204602F0BBF938B984F831A002E00420CF
:1081600084F83100C4F82094A07878B13A4604F13C
:108170005400D4F8201472DF00287FF414AF94F870
:10818000301094F8540073DF0028F6D1616B11B100
:1081900094F831008847002005E784F83150F5E76E
:1081A00070B5040012D001461C221448FEF77CFB77
:1081B0001248134D0560206850B17ADF002806D1BF
:1081C0002068016829604068686005E00E2070BD85
:1081D0000B487BDF0028FAD108484FF6FF711438AE
:1081E000084A20F8041B0549343901600021FFF7D3
:1081F0000FFB0028EBD0032070BD0000744400206A
:10820000A42B0020B9EA020010B5044600F006F8DD
:1082100008B1204610BD142010BD0000142801D361
:10822000002070470146014802F027BF9444002017
:108230007CB5054608880C460930904201D90C20CF
:108240007CBD68466DDF0028FAD12188082068547B
:1082500020881B21401C80B2208029542088401C8B
:1082600080B220802844DDF801100160BDF80510BF
:1082700081802088801D80B220809DF800104908F0
:1082800000D0012129542088401C208000207CBD82
:10829000F8B52B4D018804466E8821293BD015DCAA
:1082A0002848294A1029A0EB02004FEAD0004FF0DD
:1082B000030202EB004013D0112925D0132929D144
:1082C00000231A46852130467FDF17E03B2932D054
:1082D00052292AD056291DD18088132176DF0DE03E
:1082E0001AA103F0C7FF072000F0A8FB08B1FFF7B1
:1082F000CFF9A1886980184803F032F8002809D026
:10830000BDE8F840FFF7C4B914A103F0B3FF4FF67E
:10831000FF706880F8BD00200090A08869468FDF5C
:108320000028F7D0FFF7B4F9F8BD00231A46194624
:108330003046B1DFE2E78088132176DFDEE7000018
:10834000E02A0020F0FD020088FD0200436F6E6EFF
:108350006563746564000000C83B00204469736372
:108360006F6E6E65637465640000000010B51A4C92
:108370000188606810290ED011292BD1401E606041
:1083800028D1FFF7D2F8002824D02168002921D075
:10839000BDE810400847D0B900210122084600F08E
:1083A0002BFB08B107280FD107220221012000F082
:1083B00023FB08B1072807D104220221002000F086
:1083C0001BFB20B1072802D0216801B188476068F3
:1083D000401C606010BD00009C2B00202DE9F04780
:1083E00001883B4E40F2F3194FF6FF7510291BD060
:1083F00011293ED0122954D0502946D1C188F28982
:10840000841D914241D1618902293ED1868830463E
:1084100002F08CFA050038D004F10C0000F0BEF92F
:10842000A8B3294630464EE0C17B8788044601291F
:108430002BD1A846284602F079FA050017D02F80E4
:1084400000202872234843464A460168C5F80A10AE
:108450004068C5F80E0004F1100105F10A0002F0B1
:1084600027FB6872F08900280FD129462AE00420F2
:1084700013E0808802F05AFA040006D06068FFF723
:1084800019FA08B105F0AAFE2580BDE8F087FFE7DC
:108490006868FFF70FFA0028F7D0BDE8F04705F04D
:1084A0009DBE87880646384602F040FA0400ECD0AC
:1084B0002B464A4606F1080104F10A0002F0F8FAD8
:1084C000607221463846BDE8F04700F009BE000062
:1084D00074440020A42B00202DE9F04F0446868828
:1084E0000188424897B0834610290CD0112950D0FA
:1084F000103019296AD01A2974D1217A0C09042C58
:108500004DD301224CE0394D083DA868C0430B9083
:1085100069680BA802F0D5FD0B990CA800F07AFD54
:108520002C220CA96846FEF7BFF90027E946A846A9
:1085300010E000BF09EB47005FF00005B0F804A0B1
:1085400008EB85005146001D02F08CFD6D1C1E2DB0
:10855000F6D37F1C0098B842ECD8142E05D317B080
:108560000420BDE8F04FFFF793B83146584602F0BB
:108570008FFD314608F1040002F08AFDE07B0128FE
:1085800030D017B03146BDE8F04F1848001D02F05A
:108590007FBD17B03146BDE8F04F02F063BD002249
:1085A000314601F08EFF032C01D3012200E00022AE
:1085B0000E4831460C3001F084FF022C01D3012219
:1085C00000E0002209483146083006E0217A0029FF
:1085D00008D1617AC1F3C002314617B0BDE8F04F4F
:1085E00001F06FBF17B0BDE8F08F00009844002085
:1085F000F0B585B016460F4604001D4614D004AAF7
:1086000019466069FFF7CEFA00280BD1A5F57F4027
:10861000FF380BD0049848B1007848B13088F4286E
:1086200008D9072005B0F0BD0E20FBE70520F9E7CB
:108630000820F7E700200090019002900390A088A6
:10864000ADF8000001208DF80200CDE9026769460F
:108650002846AEDFE6E7000070B5334D04008EB06B
:108660002DCD08AE86E82D005BD0E9B30868A06187
:10867000214608A862DF002851D1207801258DF815
:108680003200ADF83050A21C0CA92846A8DF002803
:1086900045D120216846FEF720F90220ADF8000000
:1086A00020788DF802008DF80C509DF80D00F4260E
:1086B000ADF8046040F00C008DF81150ADF8065094
:1086C0008DF80D008DF81250608804F10C02694697
:1086D00000F0AAFB002822D120216846FEF7FDF811
:1086E0000320ADF8000000E01BE020788DF80200C8
:1086F0008DF80C509DF80D008DF81150ADF8046008
:1087000040F010008DF81250ADF806508DF80D00B5
:108710008DF813506088221D694600F085FB0EB06D
:1087200070BD0E20FBE7000084EF020070B588B03A
:108730000446002924D0002C22D008462188102984
:1087400020D0502924D057291AD10546A188406944
:1087500006AAFFF727FA002812D1069E30780028D3
:108760000ED018216846FEF7B8F801208DF80000F9
:108770000195A088ADF808000396A9696846884766
:1087800008B070BD08B02146BDE8704004F01ABFC3
:1087900008B02146BDE8704004F0F4BF007800F056
:1087A000010070470649095C4FF0A040D0F8100561
:1087B000C84010F0010000D0012080F00100704797
:1087C0003CEF02002DE9FC410646C0074FF00005D2
:1087D0000ED0104F00240122385D00950023114671
:1087E000019503F0A3FA641C042CF4D300F046F8BE
:1087F000B0070DD5074E0024361D0022305D03233F
:1088000000951146019503F091FA641C042CF4D3F1
:10881000BDE8FC8138EF020007490B5C4FF0A04136
:10882000D1F804250120984020EA0203C1F8083558
:108830001040C1F80C05704738EF02000249085C8F
:10884000012103F004BB000038EF02000249085C7C
:10885000002103F0FCBA000038EF02000649095C71
:108860004FF0A040D0F80405C84010F0010000D03F
:10887000012080F00100704738EF020010B500249D
:108880002046FFF7DBFF641C042CF9D310BD10B5A4
:1088900000242046FFF7DAFF641C042CF9D310BD36
:1088A00010B50246064B4FF0FF3000215C5C94424D
:1088B00001D1084610BD491C0429F7D310BD0000A2
:1088C0003CEF020070B50C4E0C004FF0000530601C
:1088D0000BD0012000F05AF808B1022004E000207B
:1088E00000F054F800B10B202070706810B9FEF74A
:1088F0001CFE0546284670BD9C2B00202DE9F04744
:108900000D468146FFF7CCFF0446042836D2DFF837
:1089100074801B481C4EA8F10C0725B3012D0ED006
:10892000022D2BD104EB440030444578002D25D096
:10893000B968002922D02846BDE8F047084704EB73
:108940004401755C0E44717849B10E4A4FF4804180
:10895000093A8068FEF796FF08B987F80390B17866
:1089600008F80410E2E78068FEF7A4FF04EB440176
:10897000314418F804008D78A842D7D0BDE8F087BC
:1089800040EF0200982B002010440020042801D260
:10899000FFF708BF002070470246154810B5408811
:1089A000042A14D04FF6FF71072A19D00A2A1ED0C4
:1089B0000E2A1CD188421AD103210E48FFF7D8FA9B
:1089C00008B1FEF765FEBDE8104005F0ABBE13210F
:1089D00076DF0AE000280AD0BDE81040FEF758BE56
:1089E000884204D10348FFF7A6FA0828F2D110BD47
:1089F000E02A0020D43B002070B50023042810D2C8
:108A00000D4D00EB4004012A02D101290CD00022B7
:108A1000094E00EB4000304461B1012906D0022923
:108A200006D00723184670BD0E30C2B22A55F9E7AA
:108A30004270F7E78270F5E710440020044A0146CF
:108A400000201279D20702D0084600F04DB87047D6
:108A50008C2B002070B506461E480024C0E9016139
:108A6000B00720D50025012211462846FFF7C4FF94
:108A70006D1C0446042D02D2002CF4D013E094B9EE
:108A800040F2333204211448FEF780FD04000AD17D
:108A9000FEF76AFD040006D10F48104A0021001FAE
:108AA000FEF7B6FE0446F00712D00120FFF78AFE5B
:108AB00074B909480A4A00210C38FEF7A9FE0400DF
:108AC00006D10548074A01210838FEF7A1FE0446F1
:108AD000204670BD8C2B00204CEF0200AD8D0200B3
:108AE00031AB0200617502002DE9F05F6E4C054666
:108AF00000266078B34618B184F801B002F000F89F
:108B00006A4F4FF47A694FF4C87A4FF00108182D74
:108B100069D2DFE805F00C1313384754696E727B95
:108B2000727BC58484848484B3B6B9BCC5C501F0A6
:108B3000E7FF3868FEF7BEFE06465CE00020FFF760
:108B40008DFE00284FF0000008D0FFF777FE022DC1
:108B500002D14FF4E16008E0484606E0FFF776FEF8
:108B6000022D01D1C82000E05046410CC0034FF453
:108B70007A72801841F10001257052000023FDF740
:108B800031FC01462AE00020FFF768FE00284FF084
:108B9000000004D0FFF752FE4FF44870E5E7FFF7FE
:108BA00055FEDFE70020FFF759FE00284FF00000D8
:108BB00002D0FFF743FECFE7FFF748FED4E70020DF
:108BC000FFF74CFE00284FF0000002D0FFF736FE02
:108BD00001E0FFF73BFE257040F6CD4100223868EA
:108BE000FEF750FE064646E00020FFF715FE257012
:108BF00008E0002051E025703DE084F8018001206C
:108C0000FFF70AFE002240F26661E8E784F801807F
:108C10000120FFF701FE00224FF40051DFE77868E2
:108C2000FEF748FE0646D5F1110000D02EB1022015
:108C3000FFF704FE84F802B01DE0012816D980B2C7
:108C4000C8214843C117C90341EA5041C0034FF44A
:108C50007A72801841F1000152000023FDF7C2FB37
:108C6000014600227868FEF70DFE06460220FFF757
:108C7000EDFD84F802803046BDE8F09F01F040FF32
:108C8000B9E701F03DFFB4E701F03AFF04E001F07D
:108C900037FF0020FFF7DAFD0120FFF7D7FDAAE735
:108CA000FFF7F5FDA7E700008C2B002040EF020046
:108CB0002DE9F8430546861C00208DF800009046FB
:108CC0000F464FF001096846FEF7A4FE1B4C2068D2
:108CD0003860D4E90001401AA16804F21C47081A60
:108CE0000EE00121384602F0E6F901F037FF0146B7
:108CF000384602F0E0F9D4E90001401AA168081AE8
:108D0000401C8642EDD8B8F1000F03D0052065F372
:108D1000891002E0062065F39F50A2682168114087
:108D200004EB8101C8602068304420609DF8000099
:108D3000FEF794FE4846BDE8F8830000D8490020BD
:108D400070B50D4604460A2902D10D21FFF7F8FF40
:108D5000A0682268411CA1601554D4E90101814238
:108D600004D32046BDE8704002F0A5BC70BD0000F1
:108D7000034803C8814201D1012070470020704799
:108D8000D8490020034630B50748002104784268DE
:108D900006E000BF02EBC10005789D4203D0491CEC
:108DA000A142F7DB002030BDC82B00200078022153
:108DB000FFF7A4BD05494FF0FF32082841F82020F5
:108DC00002D3084480F84820704700002045002066
:108DD000F0B54FF0FF3512B10023082601E008235B
:108DE0000C260C4C05E000BF54F823707F1C04D007
:108DF0005B1CB342F8D32846F0BD26185DB286F856
:108E0000305044F82310002AF5D1E11881F84800C9
:108E1000F1E70000204500200249084490F93000A5
:108E200070470000204500202DE9F04381468878F6
:108E300091B090460C4600B901208DF83E00208884
:108E4000ADF83C0000250095607C694605F03AFAD3
:108E50006E46A07C711C05F035FAE07B00289DF879
:108E6000020002D040F0080001E020F008008DF878
:108E70000200217C11B140F0100001E020F0100050
:108E80008DF80200217B11B140F0010001E020F0DB
:108E900001008DF80200217D09B1022100E00121CD
:108EA00061F342008DF802001C2102A8FDF715FDB8
:108EB000607BC10601D4800617D50E950EAFE07C0D
:108EC000791C05F0FFF99DF83800079720F00F0096
:108ED000401C20F0F00010308DF838009DF83A006A
:108EE00020F00600801C8DF83A00607B8DF80800A9
:108EF000A07B8DF80900142109A8FDF7EEFC0FA84E
:108F0000CDE90906A088ADF83000A06820B1E0885E
:108F1000ADF82C00A0680D90A06998B30195008869
:108F2000ADF81000A06901AD01A94088ADF81200AC
:108F3000A069406806950390A069007B05F0C2F91E
:108F4000A069691C407B05F0BDF9A069807A002802
:108F50009DF8060002D040F0080001E020F0080073
:108F60008DF80600A169C97A11B140F0100001E046
:108F700020F010008DF80600A169097A19B140F0BF
:108F8000010002E00DE020F001008DF80600A1696B
:108F9000897B09B1022100E0012161F342008DF8D3
:108FA0000600E06900B10590434609AA02A94846B7
:108FB000AADF11B0BDE8F08370B5084C050009D0F8
:108FC00010342168002907D00868206049682846C5
:108FD0008847F6E70834F4E770BD00000C45002030
:108FE000054A012120B1012805D19170FFF7E4BFA6
:108FF00051700020FAE770470C45002010B5D0E909
:109000000234D1E90220D11AA04101D3012010BDC0
:10901000002010BD73B58CB00646002000900D985E
:1090200080B100246D4621460DA802F026F830B12B
:10903000009805EB400084800098401C0090641C60
:10904000142CF0D32C2269463046FDF72DFC0EB0CF
:1090500070BD2DE9F04117880646B81D14460D462F
:10906000984202D90C20BDE8F081318807220629F8
:109070000AD34FF4486C4FF6FF73614501D999420A
:1090800002D17088062801D21046ECE7604501D96C
:109090009842F9D1994203D0984201D08142F3D845
:1090A0000520E85520881221401C80B220802954D8
:1090B0002088401C80B220804119308805F08DFC4A
:1090C0002188084480B220804119708805F085FC11
:1090D0002188084420800020C5E7FEF7D9BA0000A7
:1090E00038B54A7A0F4B62B100220A7259690029D9
:1090F00006D001228DF80020ADF8020068468847AE
:1091000038BD0A7A62B19B684C680246194620460F
:10911000FEF7B8FB0028F3D0BDE8384005F05EB894
:109120005B68F1E77444002010B5084A0121084843
:10913000FEF76EFB002808D1054800224FF480415D
:109140000068BDE81040FEF79DBB10BD7D98020091
:1091500034EF02003EB50446082244A1FDF7D8FBD7
:1091600018B3082244A12046FDF7D2FB6FF02F056B
:10917000002836D0092243A12046FDF7C9FB00286C
:1091800053D0092242A12046FDF7C2FB00280BD193
:1091900042484349401AC008032101EB004041A165
:1091A00003F068F800F0AAF83EBD002002F094F940
:1091B00001464148FDF7A3FBF420ADF808003F4805
:1091C00002AA3D4943880C30FFF712FA0828EBD079
:1091D0001328E9D00528E7D00028E5D0FEF758FA93
:1091E0003EBD607AA17A303800EB800005EB40008C
:1091F0000844C3B2207B617B303800EB800005EB74
:1092000040000844E17B227C303901EB810105EB11
:1092100041011144C0B2C9B2CDE900011A220221B4
:1092200040F2E47002F072F93EBDA07AE17A303883
:1092300000EB800005EB40000844617BA27B3039E5
:1092400001EB810105EB41011144227C637C303A42
:1092500002EB820205EB42021A44E37CC0B2C9B2BF
:10926000D2B2303B00F05EF9B6E7000047657420EB
:1092700074696D65000000005365742074696D6544
:109280000000000053657420616C61726D00000085
:10929000436865636B206D656D000000F0FD0200A2
:1092A00088FD020052656164696E6720666C6173B7
:1092B000682E2E2E00000000F82C0020E02A00204E
:1092C00010B596B00C46FDF759FB01462C220BA8B1
:1092D000FDF7EAFA2046FDF751FB01462C226846CD
:1092E000FDF7E2FA0598109004980F9003980E90FD
:1092F0000BA8FDF7BBF816B010BD000070B5134EFB
:109300008CB0002406EBC4056868A0B12846FDF7C0
:1093100035FB01462C2201A8FDF7C6FA6868DDE995
:109320000232009021460AA0FDF712FF641C302C87
:10933000E8D90CB070BD0D480D49401AC008032192
:1093400001EB00400BA102F095FFF2E7F84100208D
:1093500044542025642069733A20253032643A252C
:10936000303264204D3A256400000000F0FD020018
:1093700088FD0200434D2069732030001F482049BA
:1093800030B5401AC108032000EB014485B01DA18F
:10939000204602F06FFF214801F018F8204620A176
:1093A00002F068FF00F042FF08B1FEF771F905F026
:1093B0004DFC14216846FDF790FA684601F01EF84E
:1093C00008B1FEF765F9BDF80420204619A102F0A6
:1093D00055FFBDF8062020461CA102F04FFF00F00B
:1093E00005FF050003D0204626A102F043FF2046DA
:1093F00030A102F03FFF05B0284630BDF0FD02006D
:1094000088FD0200464453206578616D706C6520CC
:10941000737461727465642E0000000081A0020004
:10942000496E697469616C697A696E6720666473F4
:109430002E2E2E00466F756E642025642076616C9A
:109440006964207265636F7264732E00466F756E77
:1094500064202564206469727479207265636F7278
:1094600064732028726561647920746F20626520BE
:109470006761726261676520636F6C6C65637465B8
:1094800064292E0054686572652061726520736FCF
:109490006D65206572726F7220647572696E6720E7
:1094A0006761726261676520636F6C6C6563746984
:1094B0006F6E2E0046445320696E69742073756385
:1094C0006365737366756C6C792E000010B596B089
:1094D0000C46FDF753FA01462C226846FDF7E4F9E5
:1094E0002046FDF74BFA01462C220BA8FDF7DCF9CC
:1094F0000D990298884209DB0DDC0C99019888428D
:1095000004DB08DC0B990098884203DA4FF0000076
:1095100016B010BD02DD4FF00200F9E74FF0010078
:10952000F6E700002DE9F04FA1B098460023109314
:10953000462307AC4FF0000B4FF0010A0A9384E872
:10954000010CCDE9052105A8FCF790FF1C904548CA
:1095500045490024401AC008414D032101EB004653
:1095600005EBC407786840B33846FDF707FA0146B3
:109570002C2211A8FDF798F9DDE911107A688DE821
:1095800007003046224639A1139B02F08FFE641C6F
:10959000302CE5D9DFF8F490002400BF05EBC407B8
:1095A000786801280ED002280CD005EBC401C1F860
:1095B00004801C9845F8340026E0304634A102F0BF
:1095C00059FEE7E739461CA8FFF780FF012817D0AE
:1095D00039461CA8FFF77AFFF0B1641C302CDDD9A6
:1095E00099F800004C4638B11D4800F055F908B113
:1095F000FEF74EF884F800B0109821B0BDE8F08F67
:1096000005EBC401C1F8048089F800A03046224669
:1096100021A102F033FEE3E705EBC4002146D0E9C7
:109620000023C7F804801C9845F834000FE000BF01
:1096300005EBC10CDCE902700128CCE9022301D062
:109640000228E1D13A4603462F2903D0491C30298C
:10965000EED3D9E7304614A102F00CFED4E70000A7
:10966000F8410020F0FD020088FD02004344542030
:1096700025642069733A20253032643A25303264FB
:109680003A25303264204D3A256400000C2B00202E
:10969000434D2069732030004C6173742049746518
:1096A0006D3A2025640000004C61737420616C6188
:1096B000726D20776173206C6F737420746F2067F4
:1096C000697665206D656D6F727920666F72206EA8
:1096D000657720616C61726D2E00000070B588B0F6
:1096E0000020009001906B4604AA41F2A1110120D4
:1096F00000F032FE05001E481E494FF00306A0EBA5
:1097000001004FEAD00006EB004413D0A5F5064057
:10971000093820460BD018A102F0ACFD03252046E5
:1097200032461DA102F0AAFD08B0284670BD2A46A7
:109730001CA1F7E702A904A800F016FE050009D055
:1097400020461DA102F096FD03252046324612A1B7
:1097500002F094FD4FF4C07221480399FDF7A4F87C
:1097600004A800F0D5FD0028DED020461DA1D3E7D7
:10977000F0FD020088FD0200546865726520617288
:109780006520736F6D6520756E6B6E6F776E2065EB
:1097900072726F722E0000004572726F723A256409
:1097A000000000004E4F5420464F554E4420657235
:1097B000726F723A256400005468657265206172A8
:1097C0006520736F6D65206572726F7220696E20FF
:1097D0007265636F7264206F70656E2E000000000A
:1097E000F841002054686572652061726520736FCE
:1097F0006D65206572726F7220696E207265636F8D
:10980000726420636C6F73652E0000002DE9F843CD
:10981000002100910068DFF860800C460E460D467E
:10982000CDF8000008EBC50007466946FFF748FD84
:10983000009981421BD9A04211D208EBC50050F813
:10984000040C012802D0022803D104E00120FEF715
:10985000FDFFBDE8F8830120FEF7F0FFF9E7796826
:1098600009B10E4604466D1C302DDBD9F1E7012EFF
:10987000ECD0022EEFD0ECE7F84100200448054A76
:10988000016A491C016204212030FDF735BF000048
:109890000C2B00200D98020070B501468AB04FF4E1
:1098A000C0722A48FDF700F8002003900190029052
:1098B000089009900120ADF810002448059041F26D
:1098C000A1156020ADF81250069000F08FFC2049E1
:1098D000204A0326891AC90806EB014418B120461C
:1098E0001DA102F0C7FC08AB01AA2946012000F027
:1098F00033FDC8B1A0F5064109390CD0204622A19C
:1099000002F0B8FC03252046324625A102F0B6FC41
:109910000AB0284670BD04A901A800F053FD054611
:1099200020462A4621A1F1E704A901A800F042FD42
:10993000A0F506410546063903D1204628A102F0CC
:1099400099FC20462A4629A1E0E700002840002093
:10995000F0FD020088FD02005468657265206172A6
:109960006520736F6D65206572726F722064757209
:10997000696E67206761726261676520636F6C6CF6
:10998000656374696F6E2E0054686572652061723C
:109990006520736F6D65206572726F722E00000016
:1099A0004572726F723A2564000000004C6F676761
:1099B000657220636F6E66696775726174696F6E38
:1099C0002066696C65207772697474656E207769AA
:1099D000746820726573756C743A25640000000029
:1099E0004E6F205370616365000000004C6F676725
:1099F000657220636F6E66696775726174696F6EF8
:109A00002066696C6520757064617465642077698F
:109A1000746820726573756C743A256400000000E8
:109A200070B588B00646002005900690ADF8141079
:109A3000ADF816100190029001AA05A9304690DFFA
:109A4000050021D003F07AF8034611481149324647
:109A5000401AC108012000EB014004460E4902F003
:109A600014FCBDF8042012B9BDF8060028B1BDF8F9
:109A70000630204609A102F008FCBDF808201AB102
:109A80002046164902F0FAFB08B0284670BD0000D7
:109A900088FD020088FD020088F5020054686520F8
:109AA0007265717565737465642054582F5258201F
:109AB0007061636B6574206C656E67746820697390
:109AC00020746F6F206C6F6E672062792025752F70
:109AD0002575206F63746574732E0000D4F5020041
:109AE0002DE9FF410C4620B14FF4064004B0BDE81B
:109AF000F0812079002748F2096538B141F61D56FA
:109B000001281BD0022826D0681DEFE70220207113
:109B100002970397E0680190694601A804F04CF9A8
:109B200050B102988188E18000882081BDF8001042
:109B3000029804F0BFF9D9E72846D7E70A4B6A46EE
:109B40000021A01D04F0F0F838B1074918398F61E1
:109B5000CF61A842CAD13046C8E70348818801983E
:109B600004F0A8F9F5E70000602C002070B500248F
:109B70000F4D10E0686800EBC406307803F0FAF887
:109B80007178012901D0012100E0002141403078A5
:109B900000F0F2F9641C28788442EBDBD5E904017B
:109BA000084303D0BDE8704004F0E0BC70BD000085
:109BB000C82B002010B50021024801F097FA80F36D
:109BC000100010BDF44D00204FF480328A4001682F
:109BD000C1F848230068C0F8082370474FF4A0720A
:109BE00002EB810189B200F037BA2DE9F041054658
:109BF0000E464FF4A07000EB860081B228684FF447
:109C00008034B440984622F07F47C0F80843286863
:109C1000C0F84843286802F00BFD286800EB860076
:109C2000C0F840752868C0F84443B8F1000F02D06E
:109C30002868C0F80443BDE8F0810068D0F8040546
:109C40007047000070B54379224C44F823204279D4
:109C5000241D04EBC202204B1579204A9A1AD3081E
:109C60002DB10824022000EB03401DA12EE0026864
:109C70000D88C2F8085590F904208978002A4FEA27
:109C8000411106DA02F00F0202F1E02282F8141DFF
:109C900003E002F1E02282F8001490F9041001229E
:109CA00001F01F0502FA05F54909890001F1E021DB
:109CB000C1F80051417904EBC1010A71417944F8BE
:109CC00031000320002400EB03400EA102F0D2FA81
:109CD000204670BD302C0020D0FD020088FD02001F
:109CE00052544320696E7374616E636520616C72B7
:109CF0006561647920696E697469616C697A65640B
:109D00002E0000005254433A20696E697469616CF8
:109D1000697A65642E00000090F90400012100F0CA
:109D20001F0291404009800000F1E020C0F80012BD
:109D300070470A46022100F015B94FF4827100F015
:109D40008BB9006801210160704700680121416002
:109D500070472DE9F05F07460C464FF4A07000EB0A
:109D600084001FFA80FA38684FF48036A6409B467C
:109D700022F07F45C0F848633868C0F80863386847
:109D8000D0F8048500EB8402D2F84095C2F84085F3
:109D90005146386802F04CFCA9EB080020F07F40E7
:109DA000012806D1102002F023FF5146386802F046
:109DB0003FFC3868D0F80485C0F84463A5EB08017F
:109DC00021F07F413868012900EB840010D0C0F8F1
:109DD00040553868D0F804156FF07F4C6A1A521E4F
:109DE00022F07F42ACEB0B03934217D362B118E031
:109DF0006D1CC0F84055102002F0FAFE3868D0F80B
:109E0000040540450AD10CE000EB84006D1CC0F84D
:109E100040553868D0F80405884202D00D20BDE8CE
:109E2000F09F01223146384600F09CF80020F6E70A
:109E30002DE9F843104D0F4680461E46914669466F
:109E4000286801F0E3F8040014D01C21FCF745FD5C
:109E500001202071C4F81490380BC4F80080C4E9C4
:109E600002606946286801F0F2F803F043FF002021
:109E7000BDE8F8830420FBE7D0F1020010B50378B9
:109E80000022072B06D2DFE803F005040610202984
:109E900030000A7010BD01230B7003898B81838809
:109EA000CB81C06888600A7410BD02220A700289E2
:109EB0008A818288CA81C2688A60807D062802D031
:109EC0000020087410BD0120FBE703220A70C2883D
:109ED0008A810289CA81C068886010BD04230B7022
:109EE000C0888881CA818A6010BD0520087010BDB5
:109EF00070B5064D0646002455F8241009B13046C9
:109F00008847641C042CF7D370BD0000BC460020B9
:109F100030B50446006887B00D46806800281FD021
:109F200018216846FCF7D9FC0195A06805902079B6
:109F300010B1012810D107E001208DF80000206940
:109F40000290E068039005E002208DF80000E068D0
:109F50000003029060690490206881686846884721
:109F600007B030BD0368C3F84413002A02D000686C
:109F7000C0F80413704700002DE9F84F0E4634492D
:109F8000804601EB5001C007097801D00F0901E0BC
:109F900001F00F074FF00009424601204946FCF747
:109FA00052FADFF8B0A004460D46052F4ED2DFE886
:109FB00007F003161B282C00002E47D00121404635
:109FC00004F0F2F98DF800906846FDF723FD504645
:109FD000D0E904120C431543CAE9044532E00EB13E
:109FE000022114E0002112E04EB10321404604F0AA
:109FF000DBF94046BDE8F84F012104F0AFBD012177
:10A0000005E0002E22D1042101E02EB103214046BB
:10A01000BDE8F84F04F0C8B90021404604F0C4F987
:10A020000021404604F09AFD8DF800906846FDF747
:10A03000F1FC5046E243D0E904341A4024EA050119
:10A04000CAE904219DF80000FDF708FDBDE8F88F7E
:10A05000F0450020C82B002010B5006842581AB106
:10A0600002F0E6FA012010BD002010BD034901EB0B
:10A070008000A0F50830D0F800087047502B002071
:10A080002DE9F0413249334C05460323091B406852
:10A090002E4AC90803EB0144C0B1FFF7E7FF0346AE
:10A0A00028782DA152F82020204602F0EEF8274F04
:10A0B00028780126083F88B1012815D0022827D02A
:10A0C00003280FD1686800282BD039E028782AA10E
:10A0D00052F82020204602F0D1F8E8E7686800280E
:10A0E00000D1BE70BDE8F08168680028FAD1204632
:10A0F0002BA1AA6802F0C2F8AA8920462DA102F07D
:10A10000BDF8EA8920462FA102F0B8F83E70E9E7D1
:10A1100068680028E6D120462FA102F0ABF87E70D7
:10A12000E0E720461EA1AA6802F0A8F8AA89204606
:10A1300020A102F0A3F8EA89204622A102F09EF8AD
:10A1400002490020491F4870CCE70000382B00204E
:10A15000F0FD020088FD02001B5B313B33326D4590
:10A1600076656E743A20257320726563656976653D
:10A1700064202825732900001B5B313B33326D4579
:10A1800076656E743A20257320726563656976651D
:10A190006420284E52465F5355434345535329008C
:10A1A0005265636F72642049443A0930782530342F
:10A1B0007800000046696C652049443A09307825EA
:10A1C000303478005265636F7264206B65793A09A8
:10A1D00030782530347800005570646174652073E0
:10A1E00075636365737366756C6C79000D4808B5AB
:10A1F000007888B1684603F0ADFC80B1062101709B
:10A20000684603F0B5FC0848017809B101210173E3
:10A2100003F062FD002008BD48F2016008BD48F26D
:10A22000076008BD682C002080470020F0B587B08B
:10A2300014216846FCF751FB304C207818B1684671
:10A24000FFF756FE57E0201D00F032FF98BB40F6A6
:10A25000F8700168481C02D14FF0102041694FF09E
:10A260008050026940694B1C01D100FB02F1244877
:10A2700000220161A1F54051C160224901F0B0FB0B
:10A28000002823D121481C238C221F49006800F09C
:10A29000AAFE03F02FFB050016D0022D14D00027D4
:10A2A0000126062D14D005A803F054FC98B10670C1
:10A2B0000C2D1BD200E01EE0DFE805F0181018108E
:10A2C000181718171812141248F20A6007B0F0BDD8
:10A2D00026706760B3E748F20760F7E7077105E0AB
:10A2E000032100E00221017100E0067105A803F0DE
:10A2F0003FFC03F0F1FC0020E8E70000682C0020A0
:10A30000E42C0020E0F10200CC46002058F10200CD
:10A3100038B5040014D0694603F04EFDB0B1BDF865
:10A32000000000EB80010B4800EB8100C16851B1D7
:10A33000A17A41B1C168491EC1600020A07238BD38
:10A3400048F2046038BD48F2056038BD48F2096043
:10A3500038BD0000584700201FB501A9684603F02A
:10A36000E3FC04B010BD0000F8B50D46040018D0A1
:10A37000BDB1694603F020FDB0B1BDF800000C4945
:10A3800000EB800001EB800001210C30666800F0DA
:10A3900092FE2E6060680C3068600120A072002080
:10A3A000F8BD48F20460F8BD48F20960F8BD00004D
:10A3B0005847002018B10323002204F07DBC48F266
:10A3C000046070470223002204F076BC094910B5EE
:10A3D0000A69042A0AD0084A096942F82100054896
:10A3E0000121103000F067FE002010BD48F20B6024
:10A3F00010BD0000482C0020BC4600202DE9F84F7D
:10A40000044624480078D8B1F4B112212046FCF764
:10A4100064FA0320DFF880902080002504F1100802
:10A4200004F10E0A05EB850109EB8106308971897B
:10A43000084487B2706803F0E7F9032807D009E001
:10A4400048F20160BDE8F88F48F20460FAE720881E
:10A45000401E20806088F1680844608020897189EE
:10A4600008442081608938446081C7F58060A189F3
:10A4700080B2814200D2A0815346A21D211D2846F0
:10A48000CDF8008003F034FD6D1CADB2022DC9D3B0
:10A490000020D7E7682C0020584700208268838876
:10A4A0001A4003689A5C0A708168491C8160704791
:10A4B000C26883881A4003689954C168491CC16006
:10A4C00070470AB100F0E4BD00F0CCBD70B50D4698
:10A4D0000446B0F81414D0F810040122FDF747FC2C
:10A4E00000B1057004F13C0204F5826104F15400EE
:10A4F00072DF70BD10B50446C0B2FDF761FA2046A8
:10A5000010BD406803F046BB0C484A8843889A4215
:10A5100013D10A88A2F52063773B0ED18988C91E22
:10A520008AB28280064807491346401AC0080321B0
:10A5300001EB004004A101F0A8BE7047E02A002012
:10A54000F0FD020088FD020044617461206C656EBC
:10A550002069732073657420746F20307825582823
:10A560002564290010B50949094800F040FE08B1EA
:10A57000FDF78EF8F721064800F02DFE002803D0E5
:10A58000BDE81040FDF784B810BD000009A5020029
:10A59000B43B002070B510B14FF4064070BD1C4CA8
:10A5A0000025207B08B1257301E000F0A5F8207894
:10A5B00008282AD2DFE800F02904080C1029142208
:10A5C000BDE8704000F026B8BDE8704000F082B8E9
:10A5D000BDE8704000F064B8BDE8704000F040B8DD
:10A5E0000620207060880A4900EB8000283901EBC2
:10A5F00080004068BDE8704003F05CB9072020701F
:10A600006560BDE8704003F063B948F20E6070BD4C
:10A61000804700201149F0B48A1C00200346A1F1B4
:10A6200028050C18A67A4EB1A37200EB800405EB46
:10A630008404E66816B9247C012C0AD0401C80B240
:10A640000228EED30B704B804B60F0BC41F61D50DE
:10A6500070471080F0BC00F03DB80000804700203B
:10A660000C48418801EB8102A0F1280101EB820135
:10A67000CA6852B105210170074802218180016832
:10A6800000230122054801F00FB904220270496835
:10A69000F6E7000080470020702C0020E42C00200A
:10A6A00038B50A49084803240B684268898803EBD7
:10A6B000810153880470DB1C00201B0400909B0B5D
:10A6C000034801F045FA38BD80470020702C002077
:10A6D000E42C0020074910B54888091D03F0BCFB95
:10A6E00018B1BDE81040FFF7DBBFBDE81040FFF731
:10A6F000B7BF000080470020F0B51F481F49012563
:10A70000067802248B88A0F12802082E19D2DFE8EF
:10A7100006F00418181B222F2F170189491C0181EC
:10A720000021418080F80C1001EB810312F82330E6
:10A7300043B100234418491C89B2A3720229F3D300
:10A740000570F0BD0123F5E742685288D21C1A4417
:10A750008A800470F0BD46880D6806EB860602EB21
:10A76000860256680E60556013818C80062100E0D9
:10A7700007210170F0BD000080470020702C0020F0
:10A7800010B50B48FFF759FA094A083AD2E90434E0
:10A79000C018D2E9063244F10001C31A71EB02027B
:10A7A00004D24FF08072801841F1000110BD00000A
:10A7B000F82B002010B5C0B2FEF7E4FA044600788A
:10A7C00002F0D8FA01466078012801D0012000E0AB
:10A7D000002090EA010F08D00449D1E904010843A0
:10A7E00003D1BDE8104003F0C1BE10BDC82B00204E
:10A7F000428800EB82020C328A4201D90220704763
:10A800008188A1F57F42FF3A06D0018821B1806896
:10A81000401C01D00020704701207047884204D2BC
:10A820000068401C01D001207047002070470000E4
:10A8300010B50A4941600A4800F03AFC58B902F0E4
:10A84000DDF807491C238C22087404488C39001F4A
:10A85000006800F0C8FB002010BD0000D4F1020029
:10A860002C4800202DE9F0412D4F002520B17D60BE
:10A870004FF40640BDE8F0810879012258B1294E15
:10A8800001280CD0264C4FF002080834022820D0B2
:10A89000032841D127E00A7103F01AF83AE00020BA
:10A8A00000EB800116F82110022908D0401C80B26C
:10A8B0000228F5D33A707D6041F61D50DAE700EBCF
:10A8C000800006F8205006EB8000406802F0F2FF9E
:10A8D00020E00D71A4F804800023012212482168B1
:10A8E00000F0E2FF16E00D71206802F0E3FF0D4971
:10A8F00023682831498801EB810206EB8201D1F8F7
:10A9000004C0C4F800C04B60A3880B81A4F8048085
:10A9100006F822500028ADD07D6048F20D60A9E70E
:10A92000682C002058470020E42C002001460348F2
:10A9300002888A4200D00020704700006044002056
:10A940002DE9FC5F0E008346DDE90C47C6F10000EF
:10A9500098469246814600D40846012503E000BF90
:10A9600090FBFAF06D1C5045FADAA84500D945462F
:10A9700024B1002E01DB780700D5641EB80702D58C
:10A98000B8F1000F0AD0F80708D13CB1A54205D2B2
:10A9900020215846641EFEF7D3F9F6E7002E02DAAE
:10A9A0004E462D2102E0780703D52B215846FEF7AD
:10A9B000C7F907F0030002280BD1B8F1000F08D146
:10A9C0003CB1A54205D230215846641EFEF7B8F9C5
:10A9D000F6E7CDE90047434652463146584604F073
:10A9E00011F8BDE8FC9F000070B50D4604460068F4
:10A9F0004FF4887102F0C2F84FF49071206802F0B1
:10AA0000BDF84FF49271206802F0B8F84FF4A271CB
:10AA1000206802F0B3F84FF4AC71206802F0AEF891
:10AA200020681149C0F804132068690740F3073013
:10AA3000090E002806DA00F00F0000F1E02080F88F
:10AA4000141D03E000F1E02080F8001420680121CB
:10AA500040F3073000F01F0291404009800000F1F0
:10AA6000E020C0F8001170BD100342000246002033
:10AA70001268530713D502F00300012802D0022800
:10AA80000CD105E0C2F383100B68801C184404E06D
:10AA90000223086803EB92521044086001207047BB
:10AAA0000248007A002800D0012070472C4800207E
:10AAB000F0B58488A518944200D82246A41AC2880A
:10AAC000D6189A4200D81346D21A4B880788BB4240
:10AAD0000CD34088834209D88888A04206D3A84274
:10AAE00004D8C888904201D3B04201D90020F0BDFB
:10AAF0000120F0BD800701D0002070470120704781
:10AB00000A4810B5807860B1002401E0022C06D01C
:10AB10002046FDF793FE641C042CF7D310BD0324DC
:10AB2000F6E7BDE81040FDF7A9BE00008C2B002021
:10AB300003480179C90702D00078FDF7D5BF7047F7
:10AB40008C2B0020F7210180172141800021017109
:10AB50004171FB2181711B21C17170472DE9FF41BA
:10AB60000026234800F0A1FA2148001F074600F004
:10AB70009CFA204C60680090A56800E00098694647
:10AB8000284004EB80000C30FFF770FF0028F5D15F
:10AB900001AA009901EA050304EB8303491CDB6861
:10ABA00042F82030401C00910228F2D3019800F0B6
:10ABB000030001280BD0022810D10198032101EBDA
:10ABC00090500099BDF80A6001EB900005E00198F3
:10ABD000BDF80A60C0F3831008440090384600F0C6
:10ABE00061FA08B10098606004B03046BDE8F081B9
:10ABF000F04D0020D8490020ACB003F093FD4FF495
:10AC00008041002001F0B8FB08B1FCF741FD01F0E4
:10AC100009FAFCF709FE08B1FCF73AFD6649032082
:10AC2000FDF718FF08B1FCF733FD69460020FDF77A
:10AC300049FE08B1FCF72CFDFEF7A0FBFEF74EFD28
:10AC4000FEF772FA08B1FCF723FD5C4A0A21F420F2
:10AC5000FCF7C2FD08B1FCF71BFD01F0A3FC08B135
:10AC6000FCF716FD01F07EFE08B1FCF711FD002493
:10AC700069460120009401F0EBFC08B1FCF708FDE7
:10AC8000684601F07DFD08B1FCF702FD9DF8080063
:10AC90004BA120F00F00401C20F0F00010308DF888
:10ACA00008000B2202A87CDF08B1FCF7F1FC00943D
:10ACB0001020ADF800003C200194ADF80200ADF882
:10ACC00004404FF4C870ADF8060068467ADF08B15A
:10ACD000FCF7DEFCFFF746FC3C48019001A93C482C
:10ACE00000F049FB08B1FCF7D3FC3A4800906946F4
:10ACF0003948FDF7B1FC08B1FCF7CAFCAC21684645
:10AD0000FBF7EBFD02208DF800008DF802400620D5
:10AD10008DF803000120ADF84C002F498DF87C0020
:10AD20004020891F2290149141F2707023902B488B
:10AD30002990274869460C30FDF74CF808B1FCF71C
:10AD4000A7FC234801210C30FDF741F81C2168467F
:10AD5000FBF7C3FD4FF4A030CDE900404FF4F020E5
:10AD600002901F48059003251E488DF80C50069050
:10AD7000ADF80E408DF810406846FDF711FA08B1A5
:10AD8000FCF786FC18481949401AC00805EB00403A
:10AD900017A101F06FFA0E4803210C30FDF7E8F817
:10ADA00008B1FCF775FCFCF7F7FC01F049F9002845
:10ADB000F9D101F00BFCF6E799890200E0300020A0
:10ADC0004E6F726469635F554152540011C60200B0
:10ADD000C83B0020D5D40200EC2A002079D502001F
:10ADE000A9D50200DB900200F0FD020088FD020000
:10ADF0004465627567206C6F6767696E6720666F70
:10AE0000722055415254206F76657220525454205E
:10AE1000737461727465642E0000000070B514468E
:10AE200082880E4605462088111D0144921C9942D5
:10AE300001D8FE2A01D90C2070BD521C3254208842
:10AE4000FF21401C80B2208031542088401C80B2F9
:10AE500020808119288803F0C0FD2188084480B231
:10AE60002080AA8842B1A96841B13044FBF71CFD9B
:10AE70002088A98808442080002070BD072070BD6C
:10AE80002DE9F047C5881E1DB6FBF5F78946B6FBD0
:10AE9000F5F1044605FB176C407916686843DDF848
:10AEA00020A0F718001F874200D9C61A166001E0DB
:10AEB0002468491E0029FBD1A5EB0C078846B74240
:10AEC00016D818E004EB0C00001D09EB0803BAF1DA
:10AED000000F3A4602D00146184600E01946FBF73B
:10AEE000E3FC2468F61B4FF0000CB844B54201D9CE
:10AEF000374600E02F46002EE4D1BDE8F087000081
:10AF000030B5024651B101F055FA0021074C08E076
:10AF100034F821301568AB4202D11160002030BDF9
:10AF2000491C8142F4D3052030BD00000000000020
:10AF3000F8B50F46017814460546012901D1687815
:10AF400030B12088821C9A4232D8012902D006E012
:10AF50000720F8BD69780144891C994228D8181A3D
:10AF6000801E86B2ADF800602188B81C084469468E
:10AF70007DDF0028EDD12978022904D06878BDF85A
:10AF80000020904205D3BDF80000B04201D809204E
:10AF90000AE00820012905D16978B14202D8ADF84C
:10AFA000001001E0ADF80060BDF80010FE2901D9E5
:10AFB0000C20F8BD2288491CB9542188491C89B24B
:10AFC000218078542088401C2080BDF8001008445F
:10AFD00020800020F8BD10B5FBF767F908B100200C
:10AFE00010BD112010BD10B531B1B2FBF3F403FB5D
:10AFF00014241CB1092010BD0E2010BD01600021D9
:10B00000416081608281C381084610BD70B50C46E5
:10B010000546FBF7FFF8002802D02188286808447D
:10B0200070BD10B50A8849888A4203D1FBF734F90C
:10B03000012010BD002010BD70B50C460546FBF781
:10B040000EF9002802D061882868084470BD10B548
:10B050000A8849888A4203D1FBF7F8F8012010BD1D
:10B06000002010BD01F01F0301229A40D24349097C
:10B0700000EB8100114600F024B84A0950F8220084
:10B0800001F01F0201219140084000D001207047CB
:10B0900001F01F0301229A40490900EB810011468B
:10B0A00000F029B8002100F017B8012100F023B802
:10B0B000012100F016B808B56A46FBF742F900987E
:10B0C00008BD08B56A46FBF722F9009808BD08B527
:10B0D0006A46FBF736F908BD08B56A46FBF717F96B
:10B0E00008BD08B56A46FBF705F908BD08B56A460C
:10B0F000FBF7F4F808BD08B56A46FBF7FBF80098C3
:10B1000008BD08B56A46FBF729F9009808BD38B5AF
:10B11000044600258DF800506846FCF77BFC21684A
:10B120006268086890420ED9401E08600178238A40
:10B13000E26801FB0325227A2168101AC0B20A795D
:10B14000824200D208719DF80000FCF787FC284677
:10B1500038BD38B5054600208DF800000C4668461D
:10B16000FCF758FCE868298A201AB0FBF1F12A683C
:10B170001068431C136001709DF80000FCF76EFC22
:10B1800038BD10B530B1017A42680368891AC9B276
:10B190001A6006E00E2010BD03681A68541C1C607B
:10B1A0001170491EC9B2F7D200680021017108462A
:10B1B00010BDC20800F007030120895C98400840D8
:10B1C000704710B5C20800F00703885C01249C405A
:10B1D0002043885410BD28B1A1F11702E12A03D3FE
:10B1E000072070470E20704701800020704710B57F
:10B1F00060B10161F72120F8021B20F8021BFB213E
:10B2000000F8021BFFF79EFC002010BD0E2010BDB1
:10B21000F0B5858893B00C46002D39D10188002601
:10B220003F4F24293BD006DC102909D011290CD02E
:10B23000232958D14FE03A290BD0552953D129E081
:10B240000146204602F0F4F94DE0A01DFFF77AFC1C
:10B2500049E02246408934F8061F814200D808465A
:10B260006080172800D217206080106970B1607963
:10B2700060B1D7E90001CDE90301ADF80E50608857
:10B28000ADF81000136903A910469847667126713E
:10B2900013B0F0BD0146204602F01EFA23E0011D66
:10B2A0002C2206A8FBF700FBBDF81800BDF81C20F7
:10B2B00004EBC0014A732269AAB1D7E90423CDE99E
:10B2C0000423ADF81200487B8DF814002269204653
:10B2D00004A9904707E0017A207B884200D201460A
:10B2E0002846FEF79DFBA07A0028D1D0E1882846A9
:10B2F000A5DF012580B11128CAD001F01FFC02464C
:10B300000848094913B0401AC00805EB0040BDE8E1
:10B31000F04006A100F0B2BFA672E572B8E70000E7
:10B320006CEF020088FD020088FD020073645F621A
:10B330006C655F67617474635F65786368616E678D
:10B34000655F6D74755F726571756573742829200A
:10B3500072657475726E65642025732E000000009E
:10B3600020B10278DE2A03D0082070470E207047F3
:10B3700041800020704760B159B10278DE2A0AD0BE
:10B3800009684160DE2101704FF6FF7141800020A5
:10B3900070470E207047082070477FB5054600298A
:10B3A0004DD0002D4BD008780C46DE2847D1A88818
:10B3B0006188884202D1204603F0BEFB288801281C
:10B3C00025D002283BD011283AD0512837D135F862
:10B3D000040F6188884232D1A978A81C02292ED195
:10B3E000017A042903D0062901D0052927D100219B
:10B3F000009102228DF8002001914FF4C072029159
:10B400000391ADF80420007A05280FD010E0297AC6
:10B410002046012913D1A988428891420FD10121E8
:10B42000017204B0BDE8704003F086BBADF80410B3
:10B4300028886946B0DF002801D0616888477FBD51
:10B44000A88861888842FAD14FF6FF7060807FBD7E
:10B45000064808B5006A00906846FBF78FFA014677
:10B460002C220348FBF720FA014808BD0C2B0020D2
:10B47000A4430020154808B590ED020AB5EEC00AB5
:10B48000F1EE10FA1ED012490968026A406802EB18
:10B49000D101091A00EE901AB8EE601AF6EE000A11
:10B4A00041EE000ABCEEE00A10EE101A08440090CB
:10B4B0006846FBF763FA01462C220648FBF7F4F9CD
:10B4C000044808BDFFF7C4FF08BD00000C2B002096
:10B4D00004450240A443002010B510B1FFF7CAFF95
:10B4E00001E0FFF7B5FF034603A250210648FBF732
:10B4F00031F8054810BD00002578202D2025483A58
:10B50000254D3A2553000000A841002070B5144C89
:10B51000DDE90456A0F26C70C4E90410C4E90232FB
:10B52000C4E900652046FAF7A1FF0E490E4B01223F
:10B53000C8619A604A6882B1831A8B6100EE103A42
:10B540000C6AA21AF8EE400A00EE102A4A61B8EE20
:10B55000400A80EE801A81ED021A4860086270BDD0
:10B56000784300200C2B00200040024000F1804076
:10B570000068002800D00120704708B500F1804025
:10B58000002101600068009008BD000070B50B4C00
:10B59000207808B185250FE00020A0606060206160
:10B5A000E060074801F006FB054601F027FA08B9FC
:10B5B00001F0EAFA01202070284670BD0C450020F9
:10B5C000E18F020038B500258DF800506846FCF781
:10B5D00021FA074CE068401EE060E06810B901F015
:10B5E000F9FAA5709DF80000FCF738FA38BD0000A4
:10B5F0000C450020F0B505460478154889B016467C
:10B6000040F82420124A0869121DA2F1080742F8E6
:10B610002400487F385520226846FBF745F90494FA
:10B620002878385C48B10EB10A4A00E00022694629
:10B63000281D01F0C3FD09B0F0BD0EB1064A00E0BF
:10B640000022694605F10C0001F014FCF3E700004C
:10B65000B02B002099E80200F5E6020030B4037830
:10B66000054CE35C1BB130BC001D01F0DDBD30BCFE
:10B670000C3001F067BC0000AC2B002030B4037824
:10B68000054CE35C1BB130BC001D01F04FBE30BC6B
:10B690000C3001F0CDBC0000AC2B00200FB408B57D
:10B6A0000399002904D004AA00926A4600F00FF81A
:10B6B00001B05DF814FB10B582680446002A05D07D
:10B6C000D4E90403216898470020A06010BD2DE94B
:10B6D000FC4791460C00804676D014F8011B39B126
:10B6E00025290ED04046FDF72BFB20780028F4D109
:10B6F00098F80C00002867D04046BDE8FC47FFF7EB
:10B70000DABF0020012221782B291BD02D2902D05D
:10B71000302908D102E040F0010001E040F00200D1
:10B72000641C002AEFD100252A290ED02178A1F12E
:10B7300030020A2A11D205EB850201EB4205641C96
:10B74000303DF1E740F00400EAE7D9F800100B1DA6
:10B75000C9F800300968641C0D44217800232E29A3
:10B760000BD114F8011FA1F130020A2A05D203EB14
:10B77000830201EB4203303BF3E76C290DD06829CB
:10B780000BD0692921D00BDC252918D0582931D0BC
:10B7900063290ED0642915D117E014F8011FECE7D6
:10B7A000702969D0732932D075291BD0782909D125
:10B7B00020E0D9F80000011DC9F8001001784046CA
:10B7C000FDF7BEFA641C90E76CE0D9F800100A1D82
:10B7D000C9F800200968CDE900500A224046FFF769
:10B7E000AFF8EFE7D9F800100A1DC9F80020096882
:10B7F0000A2206E0D9F800100A1DC9F800200968DD
:10B800001022CDE90050404603F0FCF8DAE7D9F801
:10B81000001000270A1DC9F800200E68C00705D1D6
:10B8200012E04046761C7F1CFDF78AFA3178002929
:10B83000F7D104E0202140466D1EFDF781FABD429C
:10B84000C0D9002DF6D1BDE74EB13046FBF750F818
:10B85000074604E0202140466D1EFDF771FABD4207
:10B8600006D9002DF6D103E04046761CFDF768FAB4
:10B8700031780029F8D1A5E7D9F80000011DC9F8F1
:10B880000010056830214046FDF75AFA78214046FD
:10B89000FDF756FA08200021CDE9000103461022E9
:10B8A0002946B0E7BDE8FC872DE9F8438846050046
:10B8B0002C482D499946A0EB01004FEAD0004FF0EB
:10B8C0000101164601EB004424D0286800282CD042
:10B8D000002E34D0696840464FF010070A68511EA8
:10B8E00011EA080F11D1014672432846FBF709FE01
:10B8F00000282ED028684B463246046901B04146E4
:10B900002846A446BDE8F04360472046174B18A2DE
:10B91000009722E00E2000902046144B1EA220A18A
:10B9200000F0BBFC0E20BDE8F88308200090204604
:10B930000E4B26A21AA100F0B0FC0820F3E7092064
:10B9400000902046094B24A215A100F0A6FC092076
:10B95000E9E7064B214A2046009711A100F09DFC23
:10B960001020E0E7E8FD020088FD0200BBF10200C4
:10B97000616464725F69735F706167655F616C6960
:10B98000676E656428705F66732C20706167655F01
:10B990006164647229000000705F6673000000003B
:10B9A000257320636865636B206661696C6564203C
:10B9B000696E202573282920776974682076616C68
:10B9C000756520307825782E00000000705F667362
:10B9D0002D3E705F617069006C656E0018FA0200A0
:10B9E00038B503001148124D4FF00E04A0EB0500CE
:10B9F0004FEAD0004FF0010505EB004009D061B1DE
:10BA000019600C6801B0A446BDE8304011461846E4
:10BA10006047084B08A2009402E0064B08A200947D
:10BA200009A100F03AFC0E2038BD0000E8FD02003C
:10BA300088FD020070F10200705F66730000000074
:10BA4000705F617069000000257320636865636B37
:10BA5000206661696C656420696E20257328292041
:10BA6000776974682076616C756520307825782E4A
:10BA700000000000044801214174007A08B1002050
:10BA800070470120704700002C480020012801D099
:10BA9000032808D10449002201284A7400D000205C
:10BAA000087402F0C9B870472C48002070B50246EF
:10BAB000022801D0032A45D1234C207A002841D006
:10BAC000012833D0022831D120480023022A0068FF
:10BAD00002D0032A2AD11BE0E360017911B10129C8
